{
  "_format": "hh-sol-artifact-1",
  "contractName": "Resume3NFT",
  "sourceName": "contracts/Resume3NFT.sol",
  "abi": [
    {
      "inputs": [],
      "stateMutability": "nonpayable",
      "type": "constructor"
    },
    {
      "anonymous": false,
      "inputs": [
        {
          "indexed": true,
          "internalType": "address",
          "name": "owner",
          "type": "address"
        },
        {
          "indexed": true,
          "internalType": "address",
          "name": "approved",
          "type": "address"
        },
        {
          "indexed": true,
          "internalType": "uint256",
          "name": "tokenId",
          "type": "uint256"
        }
      ],
      "name": "Approval",
      "type": "event"
    },
    {
      "anonymous": false,
      "inputs": [
        {
          "indexed": true,
          "internalType": "address",
          "name": "owner",
          "type": "address"
        },
        {
          "indexed": true,
          "internalType": "address",
          "name": "operator",
          "type": "address"
        },
        {
          "indexed": false,
          "internalType": "bool",
          "name": "approved",
          "type": "bool"
        }
      ],
      "name": "ApprovalForAll",
      "type": "event"
    },
    {
      "anonymous": false,
      "inputs": [
        {
          "indexed": true,
          "internalType": "address",
          "name": "to",
          "type": "address"
        },
        {
          "indexed": true,
          "internalType": "uint256",
          "name": "tokenId",
          "type": "uint256"
        },
        {
          "indexed": false,
          "internalType": "uint256",
          "name": "price",
          "type": "uint256"
        }
      ],
      "name": "Minted",
      "type": "event"
    },
    {
      "anonymous": false,
      "inputs": [
        {
          "indexed": true,
          "internalType": "address",
          "name": "previousOwner",
          "type": "address"
        },
        {
          "indexed": true,
          "internalType": "address",
          "name": "newOwner",
          "type": "address"
        }
      ],
      "name": "OwnershipTransferred",
      "type": "event"
    },
    {
      "anonymous": false,
      "inputs": [
        {
          "indexed": true,
          "internalType": "address",
          "name": "from",
          "type": "address"
        },
        {
          "indexed": true,
          "internalType": "address",
          "name": "to",
          "type": "address"
        },
        {
          "indexed": true,
          "internalType": "uint256",
          "name": "tokenId",
          "type": "uint256"
        }
      ],
      "name": "Transfer",
      "type": "event"
    },
    {
      "inputs": [],
      "name": "OG_PRICE",
      "outputs": [
        {
          "internalType": "uint256",
          "name": "",
          "type": "uint256"
        }
      ],
      "stateMutability": "view",
      "type": "function"
    },
    {
      "inputs": [
        {
          "internalType": "address",
          "name": "to",
          "type": "address"
        },
        {
          "internalType": "uint256",
          "name": "tokenId",
          "type": "uint256"
        }
      ],
      "name": "approve",
      "outputs": [],
      "stateMutability": "nonpayable",
      "type": "function"
    },
    {
      "inputs": [
        {
          "internalType": "address",
          "name": "owner",
          "type": "address"
        }
      ],
      "name": "balanceOf",
      "outputs": [
        {
          "internalType": "uint256",
          "name": "",
          "type": "uint256"
        }
      ],
      "stateMutability": "view",
      "type": "function"
    },
    {
      "inputs": [
        {
          "internalType": "address",
          "name": "",
          "type": "address"
        }
      ],
      "name": "card",
      "outputs": [
        {
          "internalType": "string",
          "name": "",
          "type": "string"
        }
      ],
      "stateMutability": "view",
      "type": "function"
    },
    {
      "inputs": [
        {
          "internalType": "uint256",
          "name": "",
          "type": "uint256"
        }
      ],
      "name": "claimed",
      "outputs": [
        {
          "internalType": "bool",
          "name": "",
          "type": "bool"
        }
      ],
      "stateMutability": "view",
      "type": "function"
    },
    {
      "inputs": [
        {
          "internalType": "uint256",
          "name": "tokenId",
          "type": "uint256"
        }
      ],
      "name": "getApproved",
      "outputs": [
        {
          "internalType": "address",
          "name": "",
          "type": "address"
        }
      ],
      "stateMutability": "view",
      "type": "function"
    },
    {
      "inputs": [
        {
          "internalType": "address",
          "name": "owner",
          "type": "address"
        },
        {
          "internalType": "address",
          "name": "operator",
          "type": "address"
        }
      ],
      "name": "isApprovedForAll",
      "outputs": [
        {
          "internalType": "bool",
          "name": "",
          "type": "bool"
        }
      ],
      "stateMutability": "view",
      "type": "function"
    },
    {
      "inputs": [
        {
          "internalType": "string",
          "name": "_cid",
          "type": "string"
        }
      ],
      "name": "mint",
      "outputs": [],
      "stateMutability": "payable",
      "type": "function"
    },
    {
      "inputs": [
        {
          "internalType": "address",
          "name": "",
          "type": "address"
        }
      ],
      "name": "mintedCounts",
      "outputs": [
        {
          "internalType": "uint256",
          "name": "",
          "type": "uint256"
        }
      ],
      "stateMutability": "view",
      "type": "function"
    },
    {
      "inputs": [],
      "name": "name",
      "outputs": [
        {
          "internalType": "string",
          "name": "",
          "type": "string"
        }
      ],
      "stateMutability": "view",
      "type": "function"
    },
    {
      "inputs": [],
      "name": "owner",
      "outputs": [
        {
          "internalType": "address",
          "name": "",
          "type": "address"
        }
      ],
      "stateMutability": "view",
      "type": "function"
    },
    {
      "inputs": [
        {
          "internalType": "uint256",
          "name": "tokenId",
          "type": "uint256"
        }
      ],
      "name": "ownerOf",
      "outputs": [
        {
          "internalType": "address",
          "name": "",
          "type": "address"
        }
      ],
      "stateMutability": "view",
      "type": "function"
    },
    {
      "inputs": [],
      "name": "renounceOwnership",
      "outputs": [],
      "stateMutability": "nonpayable",
      "type": "function"
    },
    {
      "inputs": [
        {
          "internalType": "address",
          "name": "from",
          "type": "address"
        },
        {
          "internalType": "address",
          "name": "to",
          "type": "address"
        },
        {
          "internalType": "uint256",
          "name": "tokenId",
          "type": "uint256"
        }
      ],
      "name": "safeTransferFrom",
      "outputs": [],
      "stateMutability": "nonpayable",
      "type": "function"
    },
    {
      "inputs": [
        {
          "internalType": "address",
          "name": "from",
          "type": "address"
        },
        {
          "internalType": "address",
          "name": "to",
          "type": "address"
        },
        {
          "internalType": "uint256",
          "name": "tokenId",
          "type": "uint256"
        },
        {
          "internalType": "bytes",
          "name": "data",
          "type": "bytes"
        }
      ],
      "name": "safeTransferFrom",
      "outputs": [],
      "stateMutability": "nonpayable",
      "type": "function"
    },
    {
      "inputs": [
        {
          "internalType": "address",
          "name": "operator",
          "type": "address"
        },
        {
          "internalType": "bool",
          "name": "approved",
          "type": "bool"
        }
      ],
      "name": "setApprovalForAll",
      "outputs": [],
      "stateMutability": "nonpayable",
      "type": "function"
    },
    {
      "inputs": [
        {
          "internalType": "bytes4",
          "name": "interfaceId",
          "type": "bytes4"
        }
      ],
      "name": "supportsInterface",
      "outputs": [
        {
          "internalType": "bool",
          "name": "",
          "type": "bool"
        }
      ],
      "stateMutability": "view",
      "type": "function"
    },
    {
      "inputs": [],
      "name": "symbol",
      "outputs": [
        {
          "internalType": "string",
          "name": "",
          "type": "string"
        }
      ],
      "stateMutability": "view",
      "type": "function"
    },
    {
      "inputs": [
        {
          "internalType": "uint256",
          "name": "_tokenId",
          "type": "uint256"
        }
      ],
      "name": "tokenURI",
      "outputs": [
        {
          "internalType": "string",
          "name": "",
          "type": "string"
        }
      ],
      "stateMutability": "view",
      "type": "function"
    },
    {
      "inputs": [
        {
          "internalType": "address",
          "name": "from",
          "type": "address"
        },
        {
          "internalType": "address",
          "name": "to",
          "type": "address"
        },
        {
          "internalType": "uint256",
          "name": "tokenId",
          "type": "uint256"
        }
      ],
      "name": "transferFrom",
      "outputs": [],
      "stateMutability": "nonpayable",
      "type": "function"
    },
    {
      "inputs": [
        {
          "internalType": "address",
          "name": "newOwner",
          "type": "address"
        }
      ],
      "name": "transferOwnership",
      "outputs": [],
      "stateMutability": "nonpayable",
      "type": "function"
    },
    {
      "inputs": [],
      "name": "withdraw",
      "outputs": [],
      "stateMutability": "nonpayable",
      "type": "function"
    }
  ],
  "bytecode": "0x60806040523480156200001157600080fd5b50604080518082018252600b81526a14995cdd5b594cc813919560aa1b602080830191825283518085019094526007845266526573756d653360c81b9084015281519192916200006491600091620000f8565b5080516200007a906001906020840190620000f8565b5050506200009762000091620000a260201b60201c565b620000a6565b6001600755620001db565b3390565b600680546001600160a01b038381166001600160a01b0319831681179093556040519116919082907f8be0079c531659141344cd1fd0a4f28419497f9722a3daafe3b4186f6b6457e090600090a35050565b82805462000106906200019e565b90600052602060002090601f0160209004810192826200012a576000855562000175565b82601f106200014557805160ff191683800117855562000175565b8280016001018555821562000175579182015b828111156200017557825182559160200191906001019062000158565b506200018392915062000187565b5090565b5b8082111562000183576000815560010162000188565b600181811c90821680620001b357607f821691505b60208210811415620001d557634e487b7160e01b600052602260045260246000fd5b50919050565b611a5880620001eb6000396000f3fe6080604052600436106101355760003560e01c8063715018a6116100ab578063b88d4fde1161006f578063b88d4fde1461035e578063c87b56dd1461037e578063d85d3d271461039e578063dbe7e3bd146103b1578063e985e9c5146103e1578063f2fde38b1461042a57600080fd5b8063715018a6146102db5780638da5cb5b146102f057806390069b421461030e57806395d89b4114610329578063a22cb4651461033e57600080fd5b806337e4f2f6116100fd57806337e4f2f61461020b5780633ccfd60b1461024657806342842e0e1461025b578063566171d91461027b5780636352211e1461029b57806370a08231146102bb57600080fd5b806301ffc9a71461013a57806306fdde031461016f578063081812fc14610191578063095ea7b3146101c957806323b872dd146101eb575b600080fd5b34801561014657600080fd5b5061015a6101553660046114ca565b61044a565b60405190151581526020015b60405180910390f35b34801561017b57600080fd5b5061018461049c565b6040516101669190611546565b34801561019d57600080fd5b506101b16101ac366004611559565b61052e565b6040516001600160a01b039091168152602001610166565b3480156101d557600080fd5b506101e96101e436600461158e565b610555565b005b3480156101f757600080fd5b506101e96102063660046115b8565b610670565b34801561021757600080fd5b506102386102263660046115f4565b600a6020526000908152604090205481565b604051908152602001610166565b34801561025257600080fd5b506101e96106a1565b34801561026757600080fd5b506101e96102763660046115b8565b61079a565b34801561028757600080fd5b506101846102963660046115f4565b6107b5565b3480156102a757600080fd5b506101b16102b6366004611559565b61084f565b3480156102c757600080fd5b506102386102d63660046115f4565b6108af565b3480156102e757600080fd5b506101e9610935565b3480156102fc57600080fd5b506006546001600160a01b03166101b1565b34801561031a57600080fd5b5061023866038d7ea4c6800081565b34801561033557600080fd5b50610184610949565b34801561034a57600080fd5b506101e961035936600461160f565b610958565b34801561036a57600080fd5b506101e96103793660046116d7565b610963565b34801561038a57600080fd5b50610184610399366004611559565b61099b565b6101e96103ac366004611753565b610a8c565b3480156103bd57600080fd5b5061015a6103cc366004611559565b60096020526000908152604090205460ff1681565b3480156103ed57600080fd5b5061015a6103fc36600461179c565b6001600160a01b03918216600090815260056020908152604080832093909416825291909152205460ff1690565b34801561043657600080fd5b506101e96104453660046115f4565b610bfd565b60006001600160e01b031982166380ac58cd60e01b148061047b57506001600160e01b03198216635b5e139f60e01b145b8061049657506301ffc9a760e01b6001600160e01b03198316145b92915050565b6060600080546104ab906117cf565b80601f01602080910402602001604051908101604052809291908181526020018280546104d7906117cf565b80156105245780601f106104f957610100808354040283529160200191610524565b820191906000526020600020905b81548152906001019060200180831161050757829003601f168201915b5050505050905090565b600061053982610c73565b506000908152600460205260409020546001600160a01b031690565b60006105608261084f565b9050806001600160a01b0316836001600160a01b031614156105d35760405162461bcd60e51b815260206004820152602160248201527f4552433732313a20617070726f76616c20746f2063757272656e74206f776e656044820152603960f91b60648201526084015b60405180910390fd5b336001600160a01b03821614806105ef57506105ef81336103fc565b6106615760405162461bcd60e51b815260206004820152603d60248201527f4552433732313a20617070726f76652063616c6c6572206973206e6f7420746f60448201527f6b656e206f776e6572206f7220617070726f76656420666f7220616c6c00000060648201526084016105ca565b61066b8383610cd2565b505050565b61067a3382610d40565b6106965760405162461bcd60e51b81526004016105ca9061180a565b61066b838383610dbf565b6106a9610dca565b47806106f05760405162461bcd60e51b81526020600482015260166024820152754e6f2062616c616e636520746f20776974686472617760501b60448201526064016105ca565b60006107046006546001600160a01b031690565b6001600160a01b03168260405160006040518083038185875af1925050503d806000811461074e576040519150601f19603f3d011682016040523d82523d6000602084013e610753565b606091505b50509050806107965760405162461bcd60e51b815260206004820152600f60248201526e15da5d1a191c985dc819985a5b1959608a1b60448201526064016105ca565b5050565b61066b83838360405180602001604052806000815250610963565b600b60205260009081526040902080546107ce906117cf565b80601f01602080910402602001604051908101604052809291908181526020018280546107fa906117cf565b80156108475780601f1061081c57610100808354040283529160200191610847565b820191906000526020600020905b81548152906001019060200180831161082a57829003601f168201915b505050505081565b6000818152600260205260408120546001600160a01b0316806104965760405162461bcd60e51b8152602060048201526018602482015277115490cdcc8c4e881a5b9d985b1a59081d1bdad95b88125160421b60448201526064016105ca565b60006001600160a01b0382166109195760405162461bcd60e51b815260206004820152602960248201527f4552433732313a2061646472657373207a65726f206973206e6f7420612076616044820152683634b21037bbb732b960b91b60648201526084016105ca565b506001600160a01b031660009081526003602052604090205490565b61093d610dca565b6109476000610e24565b565b6060600180546104ab906117cf565b610796338383610e76565b61096d3383610d40565b6109895760405162461bcd60e51b81526004016105ca9061180a565b61099584848484610f45565b50505050565b6000818152600260205260409020546060906001600160a01b0316610a025760405162461bcd60e51b815260206004820152601f60248201527f55524920717565727920666f72206e6f6e6578697374656e7420746f6b656e0060448201526064016105ca565b6040518060400160405280601f81526020017f68747470733a2f2f697066732e34657665726c616e642e696f2f697066732f00815250600b6000610a458561084f565b6001600160a01b03166001600160a01b03168152602001908152602001600020604051602001610a76929190611857565b6040516020818303038152906040529050919050565b610a94610f78565b610aa2600880546001019055565b6000610aad60085490565b905066038d7ea4c680003414610afe5760405162461bcd60e51b8152602060048201526016602482015275125b98dbdc9c9958dd08195d1a195c88185b5bdd5b9d60521b60448201526064016105ca565b60008181526009602052604090205460ff1615610b545760405162461bcd60e51b8152602060048201526014602482015273139195081a185cc81899595b8818db185a5b595960621b60448201526064016105ca565b6000818152600960205260409020805460ff19166001179055610b773382610fd2565b336000908152600a60205260408120805491610b9283611908565b9091555050336000908152600b602090815260409091208351610bb79285019061141b565b50604051348152819033907f25b428dfde728ccfaddad7e29e4ac23c24ed7fd1a6e3e3f91894a9a073f5dfff9060200160405180910390a350610bfa6001600755565b50565b610c05610dca565b6001600160a01b038116610c6a5760405162461bcd60e51b815260206004820152602660248201527f4f776e61626c653a206e6577206f776e657220697320746865207a65726f206160448201526564647265737360d01b60648201526084016105ca565b610bfa81610e24565b6000818152600260205260409020546001600160a01b0316610bfa5760405162461bcd60e51b8152602060048201526018602482015277115490cdcc8c4e881a5b9d985b1a59081d1bdad95b88125160421b60448201526064016105ca565b600081815260046020526040902080546001600160a01b0319166001600160a01b0384169081179091558190610d078261084f565b6001600160a01b03167f8c5be1e5ebec7d5bd14f71427d1e84f3dd0314c0f7b2291e5b200ac8c7c3b92560405160405180910390a45050565b600080610d4c8361084f565b9050806001600160a01b0316846001600160a01b03161480610d9357506001600160a01b0380821660009081526005602090815260408083209388168352929052205460ff165b80610db75750836001600160a01b0316610dac8461052e565b6001600160a01b0316145b949350505050565b61066b838383610fec565b6006546001600160a01b031633146109475760405162461bcd60e51b815260206004820181905260248201527f4f776e61626c653a2063616c6c6572206973206e6f7420746865206f776e657260448201526064016105ca565b600680546001600160a01b038381166001600160a01b0319831681179093556040519116919082907f8be0079c531659141344cd1fd0a4f28419497f9722a3daafe3b4186f6b6457e090600090a35050565b816001600160a01b0316836001600160a01b03161415610ed85760405162461bcd60e51b815260206004820152601960248201527f4552433732313a20617070726f766520746f2063616c6c65720000000000000060448201526064016105ca565b6001600160a01b03838116600081815260056020908152604080832094871680845294825291829020805460ff191686151590811790915591519182527f17307eab39ab6107e8899845ad3d59bd9653f200f220920489ca2b5937696c31910160405180910390a3505050565b610f50848484610dbf565b610f5c84848484611150565b6109955760405162461bcd60e51b81526004016105ca90611931565b60026007541415610fcb5760405162461bcd60e51b815260206004820152601f60248201527f5265656e7472616e637947756172643a207265656e7472616e742063616c6c0060448201526064016105ca565b6002600755565b61079682826040518060200160405280600081525061125d565b826001600160a01b0316610fff8261084f565b6001600160a01b0316146110255760405162461bcd60e51b81526004016105ca90611983565b6001600160a01b0382166110875760405162461bcd60e51b8152602060048201526024808201527f4552433732313a207472616e7366657220746f20746865207a65726f206164646044820152637265737360e01b60648201526084016105ca565b826001600160a01b031661109a8261084f565b6001600160a01b0316146110c05760405162461bcd60e51b81526004016105ca90611983565b600081815260046020908152604080832080546001600160a01b03199081169091556001600160a01b0387811680865260038552838620805460001901905590871680865283862080546001019055868652600290945282852080549092168417909155905184937fddf252ad1be2c89b69c2b068fc378daa952ba7f163c4a11628f55a4df523b3ef91a4505050565b60006001600160a01b0384163b1561125257604051630a85bd0160e11b81526001600160a01b0385169063150b7a02906111949033908990889088906004016119c8565b602060405180830381600087803b1580156111ae57600080fd5b505af19250505080156111de575060408051601f3d908101601f191682019092526111db91810190611a05565b60015b611238573d80801561120c576040519150601f19603f3d011682016040523d82523d6000602084013e611211565b606091505b5080516112305760405162461bcd60e51b81526004016105ca90611931565b805181602001fd5b6001600160e01b031916630a85bd0160e11b149050610db7565b506001949350505050565b6112678383611290565b6112746000848484611150565b61066b5760405162461bcd60e51b81526004016105ca90611931565b6001600160a01b0382166112e65760405162461bcd60e51b815260206004820181905260248201527f4552433732313a206d696e7420746f20746865207a65726f206164647265737360448201526064016105ca565b6000818152600260205260409020546001600160a01b03161561134b5760405162461bcd60e51b815260206004820152601c60248201527f4552433732313a20746f6b656e20616c7265616479206d696e7465640000000060448201526064016105ca565b6000818152600260205260409020546001600160a01b0316156113b05760405162461bcd60e51b815260206004820152601c60248201527f4552433732313a20746f6b656e20616c7265616479206d696e7465640000000060448201526064016105ca565b6001600160a01b038216600081815260036020908152604080832080546001019055848352600290915280822080546001600160a01b0319168417905551839291907fddf252ad1be2c89b69c2b068fc378daa952ba7f163c4a11628f55a4df523b3ef908290a45050565b828054611427906117cf565b90600052602060002090601f016020900481019282611449576000855561148f565b82601f1061146257805160ff191683800117855561148f565b8280016001018555821561148f579182015b8281111561148f578251825591602001919060010190611474565b5061149b92915061149f565b5090565b5b8082111561149b57600081556001016114a0565b6001600160e01b031981168114610bfa57600080fd5b6000602082840312156114dc57600080fd5b81356114e7816114b4565b9392505050565b60005b838110156115095781810151838201526020016114f1565b838111156109955750506000910152565b600081518084526115328160208601602086016114ee565b601f01601f19169290920160200192915050565b6020815260006114e7602083018461151a565b60006020828403121561156b57600080fd5b5035919050565b80356001600160a01b038116811461158957600080fd5b919050565b600080604083850312156115a157600080fd5b6115aa83611572565b946020939093013593505050565b6000806000606084860312156115cd57600080fd5b6115d684611572565b92506115e460208501611572565b9150604084013590509250925092565b60006020828403121561160657600080fd5b6114e782611572565b6000806040838503121561162257600080fd5b61162b83611572565b91506020830135801515811461164057600080fd5b809150509250929050565b634e487b7160e01b600052604160045260246000fd5b600067ffffffffffffffff8084111561167c5761167c61164b565b604051601f8501601f19908116603f011681019082821181831017156116a4576116a461164b565b816040528093508581528686860111156116bd57600080fd5b858560208301376000602087830101525050509392505050565b600080600080608085870312156116ed57600080fd5b6116f685611572565b935061170460208601611572565b925060408501359150606085013567ffffffffffffffff81111561172757600080fd5b8501601f8101871361173857600080fd5b61174787823560208401611661565b91505092959194509250565b60006020828403121561176557600080fd5b813567ffffffffffffffff81111561177c57600080fd5b8201601f8101841361178d57600080fd5b610db784823560208401611661565b600080604083850312156117af57600080fd5b6117b883611572565b91506117c660208401611572565b90509250929050565b600181811c908216806117e357607f821691505b6020821081141561180457634e487b7160e01b600052602260045260246000fd5b50919050565b6020808252602d908201527f4552433732313a2063616c6c6572206973206e6f7420746f6b656e206f776e6560408201526c1c881bdc88185c1c1c9bdd9959609a1b606082015260800190565b60008351602061186a82858389016114ee565b845491840191600090600181811c908083168061188857607f831692505b8583108114156118a657634e487b7160e01b85526022600452602485fd5b8080156118ba57600181146118cb576118f8565b60ff198516885283880195506118f8565b60008b81526020902060005b858110156118f05781548a8201529084019088016118d7565b505083880195505b50939a9950505050505050505050565b600060001982141561192a57634e487b7160e01b600052601160045260246000fd5b5060010190565b60208082526032908201527f4552433732313a207472616e7366657220746f206e6f6e20455243373231526560408201527131b2b4bb32b91034b6b83632b6b2b73a32b960711b606082015260800190565b60208082526025908201527f4552433732313a207472616e736665722066726f6d20696e636f72726563742060408201526437bbb732b960d91b606082015260800190565b6001600160a01b03858116825284166020820152604081018390526080606082018190526000906119fb9083018461151a565b9695505050505050565b600060208284031215611a1757600080fd5b81516114e7816114b456fea2646970667358221220a4a76f5406ff936d5c4b9679b629d35721069b540ab4f04ef0d78965b7deaa1d64736f6c63430008090033",
  "linkReferences": {},
  "deployedLinkReferences": {}
}